{
  "contractName": "data",
  "abi": [
    {
      "inputs": [
        {
          "internalType": "address",
          "name": "",
          "type": "address"
        }
      ],
      "name": "checkData",
      "outputs": [
        {
          "internalType": "string",
          "name": "name",
          "type": "string"
        },
        {
          "internalType": "uint256",
          "name": "age",
          "type": "uint256"
        },
        {
          "internalType": "uint256",
          "name": "cnic",
          "type": "uint256"
        },
        {
          "internalType": "string",
          "name": "nationality",
          "type": "string"
        }
      ],
      "stateMutability": "view",
      "type": "function"
    },
    {
      "inputs": [
        {
          "internalType": "string",
          "name": "_name",
          "type": "string"
        },
        {
          "internalType": "uint256",
          "name": "_age",
          "type": "uint256"
        },
        {
          "internalType": "uint256",
          "name": "_cnic",
          "type": "uint256"
        },
        {
          "internalType": "string",
          "name": "_nationality",
          "type": "string"
        }
      ],
      "name": "setData",
      "outputs": [],
      "stateMutability": "nonpayable",
      "type": "function"
    }
  ],
  "bytecode": "0x608060405234801561001057600080fd5b50610d26806100206000396000f3fe608060405234801561001057600080fd5b50600436106100365760003560e01c806376bdbf8b1461003b57806377197a5714610057575b600080fd5b61005560048036038101906100509190610688565b61008a565b005b610071600480360381019061006c9190610785565b6103b8565b6040516100819493929190610840565b60405180910390f35b8360405160200161009b91906108cf565b604051602081830303815290604052805190602001206000803373ffffffffffffffffffffffffffffffffffffffff1673ffffffffffffffffffffffffffffffffffffffff16815260200190815260200160002060000160405160200161010291906109de565b604051602081830303815290604052805190602001201415806101665750826000803373ffffffffffffffffffffffffffffffffffffffff1673ffffffffffffffffffffffffffffffffffffffff1681526020019081526020016000206001015414155b806101b25750816000803373ffffffffffffffffffffffffffffffffffffffff1673ffffffffffffffffffffffffffffffffffffffff1681526020019081526020016000206002015414155b806102495750806040516020016101c991906108cf565b604051602081830303815290604052805190602001206000803373ffffffffffffffffffffffffffffffffffffffff1673ffffffffffffffffffffffffffffffffffffffff16815260200190815260200160002060030160405160200161023091906109de565b6040516020818303038152906040528051906020012014155b610288576040517f08c379a000000000000000000000000000000000000000000000000000000000815260040161027f90610a67565b60405180910390fd5b836000803373ffffffffffffffffffffffffffffffffffffffff1673ffffffffffffffffffffffffffffffffffffffff16815260200190815260200160002060000190816102d69190610c1e565b50826000803373ffffffffffffffffffffffffffffffffffffffff1673ffffffffffffffffffffffffffffffffffffffff16815260200190815260200160002060010181905550816000803373ffffffffffffffffffffffffffffffffffffffff1673ffffffffffffffffffffffffffffffffffffffff16815260200190815260200160002060020181905550806000803373ffffffffffffffffffffffffffffffffffffffff1673ffffffffffffffffffffffffffffffffffffffff16815260200190815260200160002060030190816103b19190610c1e565b5050505050565b60006020528060005260406000206000915090508060000180546103db90610915565b80601f016020809104026020016040519081016040528092919081815260200182805461040790610915565b80156104545780601f1061042957610100808354040283529160200191610454565b820191906000526020600020905b81548152906001019060200180831161043757829003601f168201915b50505050509080600101549080600201549080600301805461047590610915565b80601f01602080910402602001604051908101604052809291908181526020018280546104a190610915565b80156104ee5780601f106104c3576101008083540402835291602001916104ee565b820191906000526020600020905b8154815290600101906020018083116104d157829003601f168201915b5050505050905084565b6000604051905090565b600080fd5b600080fd5b600080fd5b600080fd5b6000601f19601f8301169050919050565b7f4e487b7100000000000000000000000000000000000000000000000000000000600052604160045260246000fd5b61055f82610516565b810181811067ffffffffffffffff8211171561057e5761057d610527565b5b80604052505050565b60006105916104f8565b905061059d8282610556565b919050565b600067ffffffffffffffff8211156105bd576105bc610527565b5b6105c682610516565b9050602081019050919050565b82818337600083830152505050565b60006105f56105f0846105a2565b610587565b90508281526020810184848401111561061157610610610511565b5b61061c8482856105d3565b509392505050565b600082601f8301126106395761063861050c565b5b81356106498482602086016105e2565b91505092915050565b6000819050919050565b61066581610652565b811461067057600080fd5b50565b6000813590506106828161065c565b92915050565b600080600080608085870312156106a2576106a1610502565b5b600085013567ffffffffffffffff8111156106c0576106bf610507565b5b6106cc87828801610624565b94505060206106dd87828801610673565b93505060406106ee87828801610673565b925050606085013567ffffffffffffffff81111561070f5761070e610507565b5b61071b87828801610624565b91505092959194509250565b600073ffffffffffffffffffffffffffffffffffffffff82169050919050565b600061075282610727565b9050919050565b61076281610747565b811461076d57600080fd5b50565b60008135905061077f81610759565b92915050565b60006020828403121561079b5761079a610502565b5b60006107a984828501610770565b91505092915050565b600081519050919050565b600082825260208201905092915050565b60005b838110156107ec5780820151818401526020810190506107d1565b60008484015250505050565b6000610803826107b2565b61080d81856107bd565b935061081d8185602086016107ce565b61082681610516565b840191505092915050565b61083a81610652565b82525050565b6000608082019050818103600083015261085a81876107f8565b90506108696020830186610831565b6108766040830185610831565b818103606083015261088881846107f8565b905095945050505050565b600081905092915050565b60006108a9826107b2565b6108b38185610893565b93506108c38185602086016107ce565b80840191505092915050565b60006108db828461089e565b915081905092915050565b7f4e487b7100000000000000000000000000000000000000000000000000000000600052602260045260246000fd5b6000600282049050600182168061092d57607f821691505b6020821081036109405761093f6108e6565b5b50919050565b60008190508160005260206000209050919050565b6000815461096881610915565b6109728186610893565b9450600182166000811461098d57600181146109a2576109d5565b60ff19831686528115158202860193506109d5565b6109ab85610946565b60005b838110156109cd578154818901526001820191506020810190506109ae565b838801955050505b50505092915050565b60006109ea828461095b565b915081905092915050565b7f596f75206861766520616c7265616479207375626d697465642074686973206960008201527f6e666f0000000000000000000000000000000000000000000000000000000000602082015250565b6000610a516023836107bd565b9150610a5c826109f5565b604082019050919050565b60006020820190508181036000830152610a8081610a44565b9050919050565b60006020601f8301049050919050565b600082821b905092915050565b600060088302610ad47fffffffffffffffffffffffffffffffffffffffffffffffffffffffffffffffff82610a97565b610ade8683610a97565b95508019841693508086168417925050509392505050565b6000819050919050565b6000610b1b610b16610b1184610652565b610af6565b610652565b9050919050565b6000819050919050565b610b3583610b00565b610b49610b4182610b22565b848454610aa4565b825550505050565b600090565b610b5e610b51565b610b69818484610b2c565b505050565b5b81811015610b8d57610b82600082610b56565b600181019050610b6f565b5050565b601f821115610bd257610ba381610946565b610bac84610a87565b81016020851015610bbb578190505b610bcf610bc785610a87565b830182610b6e565b50505b505050565b600082821c905092915050565b6000610bf560001984600802610bd7565b1980831691505092915050565b6000610c0e8383610be4565b9150826002028217905092915050565b610c27826107b2565b67ffffffffffffffff811115610c4057610c3f610527565b5b610c4a8254610915565b610c55828285610b91565b600060209050601f831160018114610c885760008415610c76578287015190505b610c808582610c02565b865550610ce8565b601f198416610c9686610946565b60005b82811015610cbe57848901518255600182019150602085019450602081019050610c99565b86831015610cdb5784890151610cd7601f891682610be4565b8355505b6001600288020188555050505b50505050505056fea2646970667358221220f698621edbd69601483490e7f130a37dcd61fd6ef4624e0d123567dc3766b32164736f6c63430008110033",
  "immutableReferences": {},
  "source": "// SPDX-License-Identifier: MIT\r\npragma solidity 0.8.17;\r\n\r\ncontract data {\r\n    struct Data {\r\n        string name;\r\n        uint age;\r\n        uint cnic;\r\n        string nationality;\r\n    }\r\n\r\n    mapping(address => Data) public checkData;\r\n\r\n    function setData(\r\n        string memory _name,\r\n        uint _age,\r\n        uint _cnic,\r\n        string memory _nationality\r\n    ) public {\r\n        require(\r\n            (keccak256(abi.encodePacked(checkData[msg.sender].name))) !=\r\n                (keccak256(abi.encodePacked(_name))) ||\r\n                checkData[msg.sender].age != _age ||\r\n                checkData[msg.sender].cnic != _cnic ||\r\n                (\r\n                    keccak256(\r\n                        abi.encodePacked(checkData[msg.sender].nationality)\r\n                    )\r\n                ) !=\r\n                (keccak256(abi.encodePacked(_nationality))),\r\n            \"You have already submited this info\"\r\n        );\r\n        checkData[msg.sender].name = _name;\r\n        checkData[msg.sender].age = _age;\r\n        checkData[msg.sender].cnic = _cnic;\r\n        checkData[msg.sender].nationality = _nationality;\r\n    }\r\n}\r\n",
  "sourcePath": "D:\\Dapp-university\\web3-practice\\video5-writing-smart-contract\\contracts\\data.sol",
  "compiler": {
    "name": "solc",
    "version": "0.8.17+commit.8df45f5f.Emscripten.clang"
  },
  "schemaVersion": "3.4.11",
  "updatedAt": "2023-01-14T06:44:17.676Z",
  "devdoc": {
    "kind": "dev",
    "methods": {},
    "version": 1
  },
  "userdoc": {
    "kind": "user",
    "methods": {},
    "version": 1
  }
}